S01100006C6E65466F6C6C6F772E7372656361
S11300000C940B030C9428030C9428030C942803DD
S11300100C94800C0C94A90C0C94D20C0C94FB0C36
S11300200C9428030C94610B0C948A0B0C94B30B62
S11300300C942E0C0C94DC0B0C94050C0C94570CA7
S11300400C94E60A0C940F0B0C94380B0C942803B4
S11300500C9428030C9428030C9428030C94280370
S11300600C9428030C9428030C9428030C94280360
S11300700C9428030C9428030C9428030763423639
S1130080B79BD8A71A39685618AEBAAB558C1D3C25
S1130090B7CC5763BD6DEDFD753EF6177231BF00E9
S11300A00000803F08000000BE922449123EABAA23
S11300B0AA2ABECDCCCC4C3E00000080BEABAAAA7E
S11300C0AA3E00000000BF000000803F00000000C6
S11300D000084178D3BB4387D1133D190E3CC3BDFF
S11300E04282AD2B3E68EC8276BED98FE1A93E4CAC
S11300F080EFFFBE01C4FF7F3F00000000006E617F
S11301006E00696E660000407A10F35A00A0724EC9
S113011018090010A5D4E80000E87648170000E4A8
S11301200B54020000CA9A3B000000E1F5050000F0
S113013080969800000040420F000000A086010055
S11301400000102700000000E80300000000640025
S1130150000000000A000000000001000000000090
S11301602C76D888DC674F0823DFC1DFAE59E1B1B4
S1130170B796E5E3E453C63AE651997696E8E6C2C3
S11301808426EB898C9B62ED407C6FFCEFBC9C9FCA
S113019040F2BAA56FA5F490055A2AF75C936B6CEC
S11301A0F9676DC11BFCE0E40D47FEF520E6B500E0
S11301B0D0ED902E0300943577050080841E08004E
S11301C000204E0A000000C80C333333330F986EFE
S11301D012831141EF8D2114893BE65516CFFEE6BB
S11301E0DB18D1844B381BF77C1D901DA4BBE42481
S11301F0203284725E228100C9F124ECA1E53D27FE
S113020016050100000000000000FA000000E000F4
S1130210E00028FE28FE282454FE5448C4C81026B2
S1130220466C92AA44A000A0C0000000384482009A
S1130230008244380028107C102810107C10100014
S11302400A0C00001010101010000606000004082C
S11302501020407C8A92A27C0042FE020042868AE0
S113026092628482A2D28C182848FE08E4A2A2A238
S11302709C3C5292920C808E90A0C06C9292926C94
S11302806092929478006C6C0000006A6C0000101C
S113029028448200282828282800824428104080E6
S11302A08A90604C929E827C7E8888887EFE9292A0
S11302B0926C7C82828244FE82824438FE929292C4
S11302C082FE909090807C8292925EFE101010FECE
S11302D00082FE8200040282FC80FE10284482FE1A
S11302E002020202FE403040FEFE201008FE7C8224
S11302F082827CFE909090607C828A847AFE9098C0
S11303009462629292928C8080FE8080FC0202024F
S1130310FCF8040204F8FC021C02FCC6281028C6DF
S1130320E0100E10E0868A92A2C200FE8282004093
S113033020100804008282FE002040804020020237
S11303400202020080402000042A2A2A1EFE1222F1
S1130350221C1C222222041C222212FE1C2A2A2ACB
S113036018107E908040304A4A4A7CFE1020201E9D
S11303700022BE0200040222BC00FE081422000077
S113038082FE02003E2018201E3E1020201E1C2249
S113039022221C3E28282810102828183E3E10200F
S11303A02010122A2A2A0420FC2202043C020204FD
S11303B03E38040204383C020C023C221408142285
S11303C0300A0A0A3C22262A322200106C820000DB
S11303D000FE000000826C100008101008100000DD
S11303E00000007F8181817F7F8383837F7F878774
S11303F0877F7F8F8F8F7F7F9F9F9F7F7FBFBFBFB1
S11304007F7FFFFFFF7F2040FF40206215171565A7
S113041000FBFB00000000000000C0FF0300E0FF41
S11304200700F0FF0F00F8FF1F0078001E0078009F
S11304301E0078001E0078001E0078001E00780060
S11304401E0078001E0078001E0078001E000000C8
S113045000000000000080FF0300E0FF0700F0FF41
S11304600F00F8FF1F00F83C1F00783C1E00783C8A
S11304701E00783C1E00783C1E00783C1E00783C30
S11304801E00783C1E00783C1E00783C1E00783C20
S11304901E000000000000000000E0FF0300F0FF69
S11304A00700F8FF0F00F8FF1F00783C1E00783C9F
S11304B01E00783C1E00783C1E00783C1E00783CF0
S11304C01E00783C1E00783C1E00783C1E00783CE0
S11304D01E000000000000000000F8FF0300F8FF09
S11304E00F00F8FF1F00F8FF1F0000001E000000AF
S11304F01E0000801F0000F01F0000FF0F00E0FF3F
S11305000700F0FF0000F80F0000F800000078007A
S1130510000078000000F8FF1F00F8FF1F00F0FF44
S11305201F00E0FF1F000000000000000000F8FFB3
S11305301F00F8FF1F00F8FF1F00F8FF1F007800DE
S11305401E00783C1E00783C1E00783C1E00783C5F
S11305501E00783C1E00783C1E00F87E1F00F8FF49
S11305601F00F0FF0F00E0E70300000000000000A0
S11305703800EEFF6C002A8045003A0047FC03FF78
S11305806CFC83FF3900DEFF0B7CD0810BFCD08137
S11305900BC0D0810BFCD0810B7CDEFF0B0082FFF3
S11305A0397002FF6CF83A0047DC2A8045CCEEFF34
S11305B06CCC000038000000000C00001E0C000091
S11305C01E0000001E0000001E0000001E00F8FFB8
S11305D01F00F8FF1F00F8FF1F00F8FF1F000000B6
S11305E01E0000001E0000001E0000001E0000008F
S11305F05E000000400000007C000000400000009D
S1130600400000007C0000003000000010000000EA
S1130610300000007C0011241FBECFEFD8E0DEBF05
S1130620CDBF11E0A0E0B1E0E6EDFFE302C005902C
S11306300D92AE39B107D9F722E0AEE9B1E001C0BD
S11306401D92A93AB207E1F70E9485060C94E91FAE
S11306500C940000CF93DF93FC0130812091B90109
S1130660321303C02081211115C0EC010E948E06B3
S11306708881882329F0823031F489E291E005C031
S11306808DE191E002C08BE391E00E945B1F8881C1
S11306908093B901DF91CF910895DC01FB019C9116
S11306A08081981325C011962D913C9112978181D8
S11306B0928128173907E1F413962D913C911497F0
S11306C0838194812817390799F415962D913C91CB
S11306D01697858196812817390751F417964D91FD
S11306E05C9118972781308581E04217530709F000
S11306F080E00895CF93DF93EC019B018091B801D2
S113070081110AC041E061E08FEA91E00E942F0A62
S113071081E08093B80141C08091B5018823E9F15B
S11307208AE491E00E945B1F80E40E94CA0783E090
S11307300E9443060E941B06BC0180E090E00E94D8
S1130740A71920E030E040EA50E40E949B1A20E020
S113075030E040E85AE30E949B1A688379838A83D5
S11307609B8384E00E9443060E941B06BC0180E038
S113077090E00E94A71920E030E040EA50E40E9493
S11307809B1A20E030E040E85AE30E949B1A6C83F5
S11307907D838E839F831092B501DF91CF9108955D
S11307A04F925F926F927F928F929F92AF92BF927D
S11307B0CF92DF92EF92FF920E948D186B017C0121
S11307C02091A2013091A3014091A4015091A5016F
S11307D00E948E184B015C016093A2017093A301E7
S11307E08093A4019093A50120919E0130919F01D3
S11307F04091A0015091A101C701B6010E948D183A
S11308002B013C01C0929E01D0929F01E092A00175
S1130810F092A1012AE939E949E95EE3C701B60189
S11308200E949B1A6B017C0123E333E343E35FE300
S1130830C501B4010E949B1A9B01AC01C701B6011A
S11308400E948E186B017C012FE832EC45EF5CE3CB
S1130850C301B2010E949B1A9B01AC01C701B601FE
S11308600E948E18FF90EF90DF90CF90BF90AF90D2
S11308709F908F907F906F905F904F9008954F92CC
S11308805F926F927F928F929F92AF92BF92CF921C
S1130890DF92EF92FF920F931F93CF93DF93EC01BC
S11308A08B01FB0180809180A280B380C480D580BD
S11308B0E680F7800E948E062AE939E949E850E487
S11308C0C701B6010E94FA18181654F426E636E653
S11308D046E950E4C701B6010E94591A87FD06C0D3
S11308E0F801448055806680778005C0F801408017
S11308F051806280738082E08883A7019601C301DE
S1130900B2010E94FA1881116FC0A301920160E044
S113091070E080E990E40E94D0036B017C012AE935
S113092039E949E850E4C301B2010E94FA181816E3
S113093044F1A701960160E070E088EC92E40E9423
S11309408D180E9471197A83698320E030E048ECA5
S113095052E4C701B6010E948E180E9471197C836B
S11309606B8389819A811816190624F083E090E03C
S11309709A83898360E083E00E9458078EE591E0C2
S113098031C026E636E646E950E4C301B2010E94CE
S1130990591A87FD29C020E030E048EC52E4C70131
S11309A0B6010E948E180E9471197A836983A70187
S11309B0960160E070E088EC92E40E948D180E9439
S11309C071197C836B838B819C811816190624F022
S11309D083E090E09C838B8360E083E00E9458076F
S11309E08BE691E00E945B1FA5019401C301B20153
S11309F00E94FA18811195C02AE939E949E850E4BE
S1130A00C301B2010E94FA18181654F426E636E619
S1130A1046E950E4C301B2010E94591A87FD73C02C
S1130A20A301920160E070E080E990E40E94D003A9
S1130A306B017C012AE939E949E850E4C301B201B8
S1130A400E94FA18181644F120E030E048EC52E411
S1130A50C701B6010E948E180E9471197A836983B6
S1130A60A701960160E070E088EC92E40E948D1882
S1130A700E9471197C836B838B819C8118161906E3
S1130A8024F085E090E09C838B8360E083E00E9407
S1130A90580787E791E031C026E636E646E950E498
S1130AA0C301B2010E94591A87FD2AC0A701960109
S1130AB060E070E088EC92E40E948D180E94711945
S1130AC07A83698320E030E048EC52E4C701B60140
S1130AD00E948E180E9471197C836B8389819A818C
S1130AE01816190624F085E090E09A83898360E063
S1130AF083E00E94580786E891E00E945B1F11C0C2
S1130B0082E390E00AC060E083E00E94580784E931
S1130B1091E00E945B1F8EE190E09A8389839C831D
S1130B208B836F8178858D819E810E944C096B81B6
S1130B307C8189819A81DF91CF911F910F91FF90E0
S1130B40EF90DF90CF90BF90AF909F908F907F9069
S1130B506F905F904F900C940B09CF93DF93EC014F
S1130B6066EA71E00E944D03811114C06F8178859B
S1130B708D819E810E944C096B817C8189819A813F
S1130B800E940B0989E0FE01A6EAB1E001900D92F2
S1130B908A95E1F7DF91CF910895CF93DF93CDB795
S1130BA0DEB728970FB6F894DEBF0FBECDBF0E9404
S1130BB0BF070E94B0060E9496080E94100681E0BA
S1130BC00E943806109223021092220210922502EB
S1130BD010922402109227021092260210922902E7
S1130BE0109228021092210288EB9BE00E94020AD4
S1130BF00E948E066DE770E0CE0101960E947A0392
S1130C00BE016F5F7F4F81E292E00E943F0481E268
S1130C1092E00E94AD0581E292E00E942A03EACFAD
S1130C208FE00E948409882311F082E008950E94D5
S1130C307A0681E008958FE00E949109882319F4CF
S1130C4020E030E013C080917A00806480937A00C1
S1130C5080917A0086FDFCCF309178002091790054
S1130C60922F80E0232F30E0282B392BC9010895DF
S1130C70ECE7F0E090818295880F880F807C9F7369
S1130C80982B90830895582F809100018830D8F4D0
S1130C9040917E0021E030E0B90102C0660F771F69
S1130CA08A95E2F7CB018095842380937E0080911E
S1130CB07E00052E02C0220F331F0A94E2F7822B16
S1130CC080937E000DC020917E0081E090E0052E8F
S1130CD002C0880F991F0A94E2F7282B20937E0004
S1130CE05093000180917C005F71807E852B8093FE
S1130CF07C0008958FE180937C00EAE7F0E087E0D0
S1130D00808380818068808308950E94E40A0E9421
S1130D10D60A0E94CD0580E090E008950F931F93BA
S1130D2085E00E9491098823C1F080E460E00E947C
S1130D30A20700E0802F60E00E94360710E080E008
S1130D4061E00E94A2071F5F1038C9F70F5F0430EB
S1130D5089F783E060E00E9490071F910F91089546
S1130D600F931F9385E00E948409882311F082E089
S1130D707AC00E94ED07182F0E949D09115012306D
S1130D8008F06DC08150823008F069C00E94BD0730
S1130D908EEA60E00E94A20782EA60E00E94A20755
S1130DA080EA60E00E94A20700E513ECC801019705
S1130DB0F1F780EC60E00E94A2078FE260E00E94FD
S1130DC0A20781E860E00E94A20786E160E00E9439
S1130DD0A20782E260E00E94A207C8010197F1F72E
S1130DE08FEA60E00E94A20786EA60E00E94A20700
S1130DF085EA60E00E94A20780E090E028E833E101
S1130E00F9013197F1F7019643E0883E9407C1F761
S1130E1083EB60E00E94A20780E460E00E94A207E6
S1130E2083E060E00E94360783E060E00E94900760
S1130E3010924102109243021092420281E091E02A
S1130E409093A6028093A50288E10E946F070E94F6
S1130E508E0684EA60E00E94A20781E004C085E077
S1130E600E94740987E01F910F910895FF920F93D8
S1130E701F93082FF62E85E00E9491098823A1F084
S1130E801F2D1F770370802F806B60E00E94A207E4
S1130E9012951F70812F806160E00E94A2078F2D40
S1130EA08F7060E00E94A2071F910F91FF90089538
S1130EB00F931F93082F162F85E00E949109882312
S1130EC059F0812F153108F084E166E0869FB00166
S1130ED01124802F0E9490071F910F9108951F9352
S1130EE0182F85E00E9491098823C1F087E00E94B1
S1130EF02F0882E06AE00E94800882E061EB0E9491
S1130F008008612F113208F060E282E00E948008BC
S1130F1089EE8A95F1F787E00E942F081F910895C2
S1130F200F931F93082F162F85E00E9491098823A1
S1130F3031F003701F7710933F02009340021F911A
S1130F400F9108950F931F93082F162F85E00E9489
S1130F509109882379F0112319F0113021F402C08A
S1130F602B9801C02B9A86E08A95F1F780E0602FD8
S1130F700E9480081F910F910895239A089586E096
S1130F800E948409882311F082E008950E94D60704
S1130F9081E008951F93182F86E00E949109882309
S1130FA019F0812F0E94DF071F910895559A569AD0
S1130FB080E20E94E20D80E40E94E20D0895282F51
S1130FC085FF04C08BB190E289278BB926FF04C04A
S1130FD08BB190E489278BB9089582E00E9484093B
S1130FE0882311F082E008950E948F0880E069E66A
S1130FF07EE00E94260881E061E67EE00E942608E9
S113100082E069E57EE00E94260886E061E77EE0F2
S11310100E94260883E061E57EE00E94260884E0C1
S113102061E57EE00E94260885E061E57EE00E949D
S1131030260887E061E57EE00E9426088FEF809312
S1131040440287E00E942F0881E00895E82FF0E031
S1131050EE0FFF1FE650FE4F7183608308951F93C8
S1131060182F82E00E949109882309F447C0912F28
S1131070977080914402981709F440C090934402F9
S113108085B1887F892B85B9933011F1943028F488
S1131090913051F0923090F40CC0953019F19530A4
S11310A0E0F0963021F50FC0E091FC01F091FD01D4
S11310B022C0E091FA01F091FB011DC0E091FE0114
S11310C0F091FF0118C0E0910602F091070213C0ED
S11310D0E0910002F09101020EC0E0910202F09151
S11310E0030209C0E0910402F091050204C0E091FA
S11310F00802F0910902309709F009951F910895AB
S11311001F93162F0E942F0882E00E9491098823C2
S113111021F01EBD0DB407FEFDCF1F910895259A41
S11311202698279A209A219A229A089587E00E9465
S11311308409882311F082E008950E946A0981E0FD
S113114080937B021092450210924602109248024C
S11311501092470210924A021092490210924C02D5
S113116010924B0210924E0210924D0210925002B5
S113117010924F0210925202109251021092540295
S11311801092530210925602109255021092580275
S11311901092570210925A021092590210925C0255
S11311A010925B0210925E0210925D021092630232
S11311B01092640210926502109266021092680204
S11311C01092690210926A0210926B0210926C02E1
S11311D010926D0210926E021092700210926F02C1
S11311E010927202109271021092740210927302A1
S11311F010927602109275021092600210925F02B1
S1131200109262021092610210927A021092790294
S113121010927B0208952EEF8037920714F480E732
S11312209EEFFC0181E0E139F80714F0E0E9F1E018
S11312309B018EEF6037780714F420E73EEFA90195
S113124021E04139520714F040E951E08F2F881F03
S11312508827881F252F221F2227221F91E0909381
S11312607B028093680220936902CF01F7FF03C0D9
S1131270909581959F4F9A0157FF03C03095219512
S11312803F4F909348028093470230934A02209341
S1131290490210927B02089521E020937B02AC0165
S11312A083E0493E580710F048EE53E09B0183E089
S11312B0693E780710F028EE33E0F894509350021A
S11312C040934F023093520220935102789410922B
S11312D07B0208953A9A3B9A3C9A3D9A3E9A3F9AE9
S11312E088B1837088B90895853160F4E82FF0E0FF
S11312F0E65DFD4F8081882329F0808181508083C1
S1131300808108958FEF0895853110F080E008956D
S1131310E82FF0E0E65DFD4F80818F5F8083815090
S11313200895853110F080E00895E82FF0E0E65D3F
S1131330FD4F8081811181E00895DF93CF9300D028
S11313400F92CDB7DEB781E00E948409882311F0A3
S113135082E011C00E94ED078150823040F40E9467
S1131360C109CE0101960E94001081E004C081E011
S11313700E94740987E00F900F900F90CF91DF9136
S11313800895109293021092920210929502109274
S1131390940210929702109296021092990210925F
S11313A0980210929B0210929A0280E991E0909325
S11313B07F0280937E0290938102809380029093B7
S11313C08302809382029093850280938402909397
S11313D087028093860284E398E090938902809345
S11313E0880290938B0280938A0290938D0280935B
S11313F08C0290938F0280938E029093910280933B
S1131400900208950F931F93DF93CF93CDB7DEB768
S113141029970FB6F894DEBF0FBECDBF8C0188E0CC
S11314200E949109882311F491E00DC0CE01019628
S113143061E040E098010E942F0A982F882319F454
S11314408F818823E9F3892F29960FB6F894DEBF9C
S11314500FBECDBFCF91DF911F910F910895EF92F1
S1131460FF920F931F93CF93DF93EC01F62EE42E9C
S1131470890188E00E949109882311F481E026C043
S113148084E090E00E94101DFC01009711F482E0BA
S11314901DC0F982F0FC1E8281E0E81619F48981EE
S11314A0846089838981886089831B830A831D837F
S11314B00C83D183C0831382128281E080931A0249
S11314C0CF010E946D0A10921A0280E0DF91CF9141
S11314D01F910F91FF90EF900895CF92DF92EF92BA
S11314E0FF920F931F93CF93DF93EC0180919C02A3
S11314F0882339F4D0939E02C0939D020E94591010
S113150047C0C0909D02D0909E0200E010E0EE24FF
S1131510FF2437C0A881B981FD0164817581F6017A
S113152040815181FA01848195819B01281B390BEB
S113153037FF0FC0861B970B95838483DB82CA8297
S1131540012B29F4D0939E02C0939D0221C0F70180
S11315500CC0F601828193812115310549F4FD0106
S1131560158214829B838A83F601D383C28310C0BD
S1131570FD01358324830097B9F30F5F1F4F760174
S11315806C0180919C0290E00817190718F2ECCFC7
S113159080919C028F5F80939C02DF91CF911F9179
S11315A00F91FF90EF90DF90CF9008950E94E90F84
S11315B00E94F30D0E94240D0E943D100E94ED072D
S11315C00E949D0978940895000008951F920F9237
S11315D00FB60F9211242F933F934F935F936F9302
S11315E07F938F939F93AF93BF93EF93FF93E09178
S11315F0DA01F091DB01309709F00995FF91EF9141
S1131600BF91AF919F918F917F916F915F914F9116
S11316103F912F910F900FBE0F901F9018951F921E
S11316200F920FB60F9211242F933F934F935F9312
S11316306F937F938F939F93AF93BF93EF93FF9396
S1131640E091DC01F091DD01309709F00995FF91FB
S1131650EF91BF91AF919F918F917F916F915F9126
S11316604F913F912F910F900FBE0F901F9018959F
S11316701F920F920FB60F9211242F933F934F9303
S11316805F936F937F938F939F93AF93BF93EF93E6
S1131690FF93E091DE01F091DF01309709F00995A5
S11316A0FF91EF91BF91AF919F918F917F916F9136
S11316B05F914F913F912F910F900FBE0F901F900C
S11316C018951F920F920FB60F9211242F933F93E8
S11316D04F935F936F937F938F939F93AF93BF9336
S11316E0EF93FF93E091CC01F091CD01309709F095
S11316F00995FF91EF91BF91AF919F918F917F9148
S11317006F915F914F913F912F910F900FBE0F906A
S11317101F9018951F920F920FB60F9211242F93BA
S11317203F934F935F936F937F938F939F93AF9365
S1131730BF93EF93FF93E091CE01F091CF013097E7
S113174009F00995FF91EF91BF91AF919F918F910E
S11317507F916F915F914F913F912F910F900FBEA9
S11317600F901F9018951F920F920FB60F9211248D
S11317702F933F934F935F936F937F938F939F9395
S1131780AF93BF93EF93FF93E091D001F091D10118
S1131790309709F00995FF91EF91BF91AF919F9117
S11317A08F917F916F915F914F913F912F910F9006
S11317B00FBE0F901F9018951F920F920FB60F92A5
S11317C011242F933F934F935F936F937F938F9342
S11317D09F93AF93BF93EF93FF93E091D401F09164
S11317E0D501309709F00995FF91EF91BF91AF9121
S11317F09F918F917F916F915F914F913F912F9125
S11318000F900FBE0F901F9018951F920F920FB656
S11318100F9211242F933F934F935F936F937F9372
S11318208F939F93AF93BF93EF93FF93E091D60170
S1131830F091D701309709F00995FF91EF91BF918D
S1131840AF919F918F917F916F915F914F913F9154
S11318502F910F900FBE0F901F9018951F920F920B
S11318600FB60F9211242F933F934F935F936F936F
S11318707F938F939F93AF93BF93EF93FF93E091E5
S1131880D201F091D301309709F00995FF91EF91BE
S1131890BF91AF919F918F917F916F915F914F9184
S11318A03F912F910F900FBE0F901F9018951F928C
S11318B00F920FB60F9211242F933F934F935F9380
S11318C06F937F938F939F93AF93BF93EF93FF9304
S11318D0E091D801F091D901309709F00995FF9171
S11318E0EF91BF91AF919F918F917F916F915F9194
S11318F04F913F912F910F900FBE0F901F9018950D
S11319001F920F920FB60F9211242F933F934F9370
S11319105F936F937F938F939F93AF93BF93EF9353
S1131920FF93E091C201F091C301309709F009954A
S1131930FF91EF91BF91AF919F918F917F916F91A3
S11319405F914F913F912F910F900FBE0F901F9079
S113195018951F920F920FB60F9211242F933F9355
S11319604F935F936F937F938F939F93AF93BF93A3
S1131970EF93FF93E091C401F091C501309709F012
S11319800995FF91EF91BF91AF919F918F917F91B5
S11319906F915F914F913F912F910F900FBE0F90D8
S11319A01F9018951F920F920FB60F9211242F9328
S11319B03F934F935F936F937F938F939F93AF93D3
S11319C0BF93EF93FF93E091C601F091C701309765
S11319D009F00995FF91EF91BF91AF919F918F917C
S11319E07F916F915F914F913F912F910F900FBE17
S11319F00F901F9018951F920F920FB60F921124FB
S1131A002F933F934F935F936F937F938F939F9302
S1131A10AF93BF93EF93FF93E091C801F091C90195
S1131A20309709F00995FF91EF91BF91AF919F9184
S1131A308F917F916F915F914F913F912F910F9073
S1131A400FBE0F901F90189580E10E94840988238F
S1131A5011F082E00895EAEBF1E01192119281E035
S1131A60EA3FF807D1F781E00895FF920F931F939F
S1131A70CF93DF93F82E8AE0F816B1F08F1548F073
S1131A80E8E0FE16B9F1EF1538F1F7E0FF1651F46E
S1131A903BC08DE0F81659F0EBE1FE1689F0FCE04E
S1131AA0FF1641F001E041C010923F0203C01092C2
S1131AB03F023AC08091400281508093400234C07A
S1131AC00E948E0614C080E061E00E94A20780910B
S1131AD03F028F5F80933F0280913F0287FFF3CFE5
S1131AE010923F028091400281508093400200E0B6
S1131AF011E01CC080913F028823B1F080913F0225
S1131B00865080933F0210C081E00E943B0F64EF37
S1131B1071E080E090E04DE750E024E630E00E9480
S1131B20470F81E00E94A20E00E010E08091400285
S1131B3060913F020E943607002351F185E0F89E30
S1131B40C0011124EC01CD59DE4F8C0108591E4F00
S1131B50FE01849161E00E94A2072196C017D1077B
S1131B60B9F780E061E00E94A20780913F028A5F9A
S1131B7080933F0280913F0290E08C3791053CF0C6
S1131B8010923F028091400281508093400211E004
S1131B9080914002837080934002113059F4809107
S1131BA04102813039F4E0914202F09143023097CE
S1131BB009F0099580E090E0DF91CF911F910F919A
S1131BC0FF9008951F93182F86E00E94910988239F
S1131BD019F0812F0E94EE0D1F91089585FD5D98E7
S1131BE086FD5E980895F8940E944E0E81E00E944E
S1131BF0FB0D81E00895813049F0F894813020F1A3
S1131C008230B1F0833009F045C017C02C9A80E8C7
S1131C10809361001092610080E090E000000196E2
S1131C2088329105D9F71092680010926B000895DC
S1131C3080E88093610083E004C080E880936100C1
S1131C4088E08093610028C080E090E00000019665
S1131C502DE680369207D1F72C9880E090E00000C2
S1131C6001962DE680369207D1F710927A008FEF15
S1131C708093640080916800816080936800809103
S1131C806B00846080936B00789483B7816083BF1A
S1131C9088950895823008F078940895249A2C9AAF
S1131CA0089583E58CBD81E08DBD8DE08A95F1F7C3
S1131CB0089583E58CBD1DBC84EF91E00197F1F795
S1131CC008958FE78CBD1DBC84EF91E00197F1F777
S1131CD0089583E58CBD81E08DBD8DE08A95F1F793
S1131CE0089583E58CBD81E08DBD84EF91E001977B
S1131CF0F1F708958AE00E947409882329F481E0A9
S1131D000E949D0F10920B02089589E00E947409AD
S1131D108823B9F480910A02882311F00E94E30F0A
S1131D2082E00E949D0F8091180290911902009701
S1131D3031F00E94A81D10921902109218021092FC
S1131D400A020895813029F0823029F40E94850E18
S1131D5008950E947A0E08950F931F93CF93DF93F3
S1131D6080E291E00E94101D9C01909319028093DF
S1131D701802892B11F480E039C08901C0E0D0E059
S1131D80BE0180E090E00E94A71920E030E040EA24
S1131D9051E40E94FF1827EF35E740E05FE30E941B
S1131DA09B1A9B01AC0160E070E080E291E40E9428
S1131DB0081B9B01AC01CA01B9012DEC3CEC42E8C3
S1131DC051E40E949B1A0E945E1A2AE030E040E02F
S1131DD050E00E948D1CF80161937193819391935B
S1131DE08F012196C834D10559F681E0DF91CF9156
S1131DF01F910F9108958AE00E948409882311F0AD
S1131E0082E00895109215021092140281E00E945B
S1131E10B90F81E080930B0208951F9389E00E941B
S1131E208409882311F082E024C08BE00E94910988
S1131E308823D9F40E94AC0E182F813011F086E06B
S1131E4018C010920C0210920D0210920E02109201
S1131E500F028DE061EA70E10E946C1082E00E9442
S1131E60B90F10930A0281E004C089E00E9474094A
S1131E7087E01F910895813021F0823029F084E0B9
S1131E8008950E94FB0E08950E940D0F08956F920D
S1131E907F928F929F92AF92BF92CF92DF92EF92F6
S1131EA0FF920F931F93CF93DF933B014C015A0191
S1131EB0E9018AE00E949109882381F1209741F188
S1131EC09501442737FD4095542FBE01C536D105F1
S1131ED010F064E670E080E090E00E948D1C24E63F
S1131EE030E040E050E00E949D1C79018A01C40169
S1131EF0B3010E94A410C7010E94020A60E070E0CE
S1131F0080E090E00E94A410C5018E199F0904C0CE
S1131F10A114B10419F0C5010E94020ADF91CF9106
S1131F201F910F91FF90EF90DF90CF90BF90AF90F3
S1131F309F908F907F906F900895823029F48091C4
S1131F4081008E7F8093810080910A02813031F478
S1131F5080910B02813011F40000089580910A02EF
S1131F60813021F080910B02813011F45F985798F1
S1131F700895982F80910A02882331F480910B02EE
S1131F80882311F4579A5F9880910A028823D1F428
S1131F909230C1F4109280001092810080918100EF
S1131FA088608093810080918100816080938100AA
S1131FB0109285001092840081E08093890080E96A
S1131FC0809388000895EFE6F0E080818D7F808320
S1131FD00895CF93DF93C0E0D0E08C2F60E00E949F
S1131FE0F80F2196C531D105C1F7DF91CF9108953E
S1131FF0853128F4E82FF0E0E65DFD4F6083089515
S11320001F93CF93DF93EC01009799F181E00E9435
S11320109109882351F187E00E942F0818EC812F41
S11320208A95F1F782E06AE00E94800882E064EB1E
S11320300E948008812F8A95F1F782E060E00E9477
S113204091108883812F8A95F1F782E060E00E94E5
S1132050911089831A95F1F782E060E00E94911053
S11320608A8387E00E942F0804C0188219828DE2B7
S11320708A83DF91CF911F91089588E00E9484099B
S1132080882311F082E0089510929C0210929E021F
S113209010929D0210921A0210921B0280E169E0D4
S11320A071E10E9480100E945D100E94661081E020
S11320B0089581E080931B02089584B5826084BDF5
S11320C085B5846085BD8EE487BD0895EEE6F0E0B5
S11320D08081826080830895E82F803268F4805183
S11320E0833050F0F0E0EE0FFF1FE654FE4F2081E6
S11320F031817183608302C020E030E0C90108951A
S1132100803218F020E030E00AC0E82FF0E0EE0F53
S1132110FF1FE654FE4F2081318171836083C90122
S113212008951F93162F0E942F0882E00E949109A0
S1132130882329F01EBD0DB407FEFDCF8EB51F9177
S113214008950E94C8100895EF92FF920F931F9371
S11321507B018C018AE00E9491098823A1F080917F
S11321600B02882381F0D801C701880F991FAA1F89
S1132170BB1F9093170280931602E114F10401052A
S1132180110509F45F981F910F91FF90EF90089546
S113219080910C0290910D02A0910E02B0910F0259
S11321A020911002309111024091120250911302B9
S11321B0280F391F4A1F5B1F20930C0230930D0216
S11321C040930E0250930F0280910C0290910D02E5
S11321D0A0910E02B0910F028851964FA040B040DA
S11321E0BCF08BB180588BB980910C0290910D0298
S11321F0A0910E02B0910F028851964FA040B040BA
S113220080930C0290930D02A0930E02B0930F02E0
S113221008950E9410110E9450110E9429110895DE
S113222088E00E949109882311F484E00895809144
S11322301B02882311F483E0089580911A028823F5
S113224011F082E008950E94EF138130E1F380E001
S1132250089580910B02813011F5809114029091C0
S113226015022091160230911702280F391F30935E
S11322701502209314028091140290911502885E35
S113228093406CF08BB180588BB98091140290917B
S11322901502885E9340909315028093140208956A
S11322A087E00E949109882309F4AAC080914F0213
S11322B090915002892B09F18091730290917402DC
S11322C020914F0230915002820F931F9093740219
S11322D0809373028091730290917402885E93409C
S11322E0A4F08091730290917402885E934090935D
S11322F074028093730241E009C080914702909177
S1132300480290934C0280934B0240E0809151022A
S113231090915202892B09F1809175029091760275
S11323202091510230915202820F931F90937602B2
S1132330809375028091750290917602885E934035
S1132340A4F08091750290917602885E93409093F8
S113235076028093750261E009C0809149029091F0
S11323604A0290934E0280934D0260E0842F0E94B3
S1132370011280916F029091700220914B02309172
S11323804C02280F391F3093700220936F02809102
S11323906F0290917002885E934014F440E00BC089
S11323A080916F0290917002885E934090937002C6
S11323B080936F0241E080917102909172022091AA
S11323C04D0230914E02280F391F30937202209330
S11323D071028091710290917202885E934014F4AC
S11323E060E00BC08091710290917202885E93400C
S11323F0909372028093710261E0842F0E944612CE
S113240008958823F1F02091470230914802809189
S11324104B0290914C02281B390B1216130634F40C
S113242080914B0290914C02019607C0232B49F0F6
S113243080914B0290914C02019790934C028093AF
S11324404B02662311F12091490230914A02809196
S11324504D0290914E02281B390B1216130654F4A8
S113246080914D0290914E02019690934E0280937A
S11324704D020895232B49F080914D0290914E0214
S1132480019790934E0280934D0208950F931F93EA
S1132490182F062F80917B02882309F0E7C08091D2
S11324A06302882309F05AC080914B0290914C0238
S11324B0892BE9F480911C02837E80931C02109284
S11324C06C0280917702882309F45DC060916502F3
S11324D080E00E94CA13E0917902F0917A02309769
S11324E009F451C081E08083109277024CC080913E
S11324F04502813041F4809157029091580201972E
S113250011F411E002C01123F1F1E0916A02F0E04C
S1132510E15FFE4F90911C02937E8081892B809312
S11325201C0280916802882321F480916A028F5FE3
S113253003C080916A02815080936A0280916A028A
S1132540837080936A0281E080936C0280914502DB
S11325508130C9F480E00E94491315C090911C0297
S1132560937E90931C02E0916A02F0E0E15FFE4FDB
S11325708081892B80931C0282E080936C021092EC
S11325804C0210924B0280916402882309F059C0D6
S113259080914D0290914E02892BE9F480911C02A6
S11325A08F7180931C0210926D02809178028823AF
S11325B009F45CC06091660281E00E94CA13E09154
S11325C07902F0917A02309709F450C081E0818356
S11325D0109278024BC080914602813041F4809180
S11325E0590290915A02019711F401E002C00023AC
S11325F0E9F1E0916B02F0E0ED5EFE4F90911C0278
S11326009F718081892B80931C02809169028823A9
S113261021F480916B028F5F03C080916B02815023
S113262080936B0280916B02837080936B0281E0D4
S113263080936D02809146028130C1F40E94491357
S113264015C090911C029F7190931C02E0916B0243
S1132650F0E0ED5EFE4F8081892B80931C0282E0C6
S113266080936D0210924E0210924D0280916E0280
S1132670882331F48CE192E0612F402F0E945D1495
S113268088B1837090911C02892B88B91F910F9196
S11326900895882321F0813009F04EC027C080912D
S11326A0570290915802892B49F0809157029091DA
S11326B058020197909358028093570280917702B1
S11326C08823D1F5209157023091580280915B0202
S11326D090915C022817390779F580E060E070E09A
S11326E00E949D1381E0809377020895809159029E
S11326F090915A02892B49F08091590290915A0283
S1132700019790935A02809359028091780288230A
S113271099F42091590230915A0280915D0290916E
S11327205E022817390741F481E060E070E00E94FE
S11327309D1381E0809378020895482F81E080936F
S11327407B02CB0121E06139720710F080E991E04E
S1132750413061F0413018F04230C9F40EC0F894B1
S11327609093480280934702789411C0F894909310
S11327704A028093490278940AC0F89490934802DC
S11327808093470290934A0280934902789410926E
S11327907B0208950F931F93182F062F662349F485
S11327A060E070E00E949D13812F60E070E00E9461
S11327B0F51481E080937B02113051F0113018F050
S11327C0123041F403C00093630204C00093630217
S11327D00093640210927B021F910F910895FF925F
S11327E00F931F93CF93DF9380919C02882309F466
S11327F059C000919D0210919E02F801C081D181BF
S11328008C819D8101979D838C83181619060CF485
S113281049C0898180FF05C08E81882311F481E03D
S11328208E83898181FF03C0EF81F88509958091AA
S11328309C028230A8F0F8018281938190939E02D9
S113284080939D0213821282E0910000F0910100B6
S113285084819581181619063CF0FF24F39405C071
S113286010929E0210929D02FF2480919C0281503E
S113287080939C0280919C02882311F40E945A1434
S1132880898182FF08C08A819B819D838C83C801D2
S11328900E946D0A08C0C8010E94A81D89818F7E0C
S11328A0898301C0FF248F2DDF91CF911F910F9158
S11328B0FF90089510921B020895FC0180916C0210
S11328C0823069F48091200291E08927809320026C
S11328D0882309F03EC08081837E80833AC0809142
S11328E04B0290914C02C397A4F56623D1F020913A
S11328F04B0230914C0280E690E0BC01269FC0015F
S1132900279F900D369F900D1124880F892F881FC3
S1132910990B9093600280935F0281E080931E0282
S113292018C080911E028823A1F080915F029091CB
S1132930600201979093600280935F0280915F022E
S113294090916002892B29F48081837E8083109288
S11329501E0280916D02823069F480911F0291E021
S1132960892780931F02882309F03EC080818F71DC
S11329708083089580914D0290914E02C397A4F5EF
S11329804423D1F020914D0230914E0280E690E034
S1132990AC01249FC001259F900D349F900D1124FC
S11329A0880F892F881F990B90936202809361028C
S11329B081E080931D02089580911D028823A1F077
S11329C080916102909162020197909362028093D8
S11329D061028091610290916202892B29F48081C5
S11329E08F71808310921D020895982F81E0809347
S11329F07B02913071F0913018F0923071F405C07F
S1132A00709358026093570208C070935802609301
S1132A10570270935A026093590210927B020895F0
S1132A20A0E1B0E0E6E1F5E10C94CA1C7C011B01D5
S1132A306A01FC0117821682838181FF44C39E01CF
S1132A402F5F3F4F3901F7019381F10193FD859188
S1132A5093FF81911F01882309F431C3853239F42E
S1132A6093FD859193FF81911F01853239F4B7015C
S1132A7090E00E941F1F56016501E5CF10E0512C24
S1132A80912CFFE1F915D8F08B3279F038F48032CB
S1132A9079F08332A1F4F92DF0612EC08D3261F00A
S1132AA0803369F4292D21602DC0392D3260932E95
S1132AB0892D8460982E2AC0E92DE86015C097FC02
S1132AC02DC020ED280F2A3088F496FE06C03AE087
S1132AD0139F200D1124122F19C08AE0589E200D37
S1132AE01124522EE92DE0629E2E10C08E3231F454
S1132AF096FCE5C2F92DF0649F2E08C08C3621F4B3
S1132B00292D2068922E02C0883641F4F10193FDEC
S1132B10859193FF81911F018111B3CF9BEB980F96
S1132B20933020F4992D9061805E07C09BE9980F43
S1132B30933008F066C1992D9F7E96FF16E09F732F
S1132B40992E853619F49064992E08C0863621F49E
S1132B50392F3068932E02C01111115097FE07C00F
S1132B601C3350F444244394410E27E00BC0183026
S1132B7038F027E017E005C027E09CE3492E02C0A7
S1132B80212F412C560184E0A80EB11CF60160816E
S1132B90718182819381042DA3010E94311E6C01F5
S1132BA0F981FC87F0FF02C0F3FF06C091FC06C068
S1132BB092FE06C000E205C00DE203C00BE201C0B4
S1132BC000E08C858C7019F001115AC29BC297FEEB
S1132BD010C04C0CFC85F4FF04C08A81813309F4D5
S1132BE04A94141474F528E0241578F588E0482EE6
S1132BF02CC096FC2AC0812F90E08C159D059CF07A
S1132C003CEFC3163FEFD30674F0892D8068982EED
S1132C100AC0E2E0F0E0EC0FFD1FE10FF11D80813E
S1132C20803319F411501111F4CF97FE0EC04424CF
S1132C304394410E812F90E0C816D9062CF41C1938
S1132C4004C04424439401C010E097FE06C01C1441
S1132C501D0434F4C601019605C085E090E002C06D
S1132C6081E090E001110196112331F0212F30E031
S1132C702F5F3F4F820F931F252D30E0821793075C
S1132C8014F4581A01C0512C892D897049F4552027
S1132C9039F0B70180E290E00E941F1F5A94F7CFE9
S1132CA0002329F0B701802F90E00E941F1F93FC9E
S1132CB009C0552039F0B70180E390E00E941F1F3E
S1132CC05A94F7CF97FE4CC04601D7FE02C0812C20
S1132CD0912CC60188199909F301E80FF91FFE87A1
S1132CE0ED87960124193109388B2F87012F10E0C5
S1132CF01195019511093FEF8316930629F4B70145
S1132D008EE290E00E941F1FC814D9044CF08F85F6
S1132D1098898815990524F4ED85FE85818101C083
S1132D2080E3F1E08F1A91082D853E852F5F3F4F98
S1132D303E872D87801691062CF0B70190E00E9403
S1132D401F1FD9CFC814D90441F49A81963320F4B3
S1132D50953319F43C8534FF81E3B70190E04EC00C
S1132D608A81813319F09C859F7E9C87B70190E00E
S1132D700E941F1F111105C094FC18C085E690E045
S1132D8017C0B7018EE290E00E941F1F1E5F82E011
S1132D9001E0080FF301E80FF11D8081B70190E015
S1132DA00E941F1F802F0113F3CFE6CF85E490E02C
S1132DB0B7010E941F1FD7FC06C0C114D10441F4FF
S1132DC0EC85E4FF05C0D194C194D1088DE201C023
S1132DD08BE2B70190E00E941F1F80E32AE0C21635
S1132DE0D1042CF08F5FFAE0CF1AD108F7CFB701E6
S1132DF090E00E941F1FB701C601C0960E941F1FCA
S1132E0054C1833631F0833779F0833509F056C0E5
S1132E1020C0560132E0A30EB11CF60180818983E3
S1132E2001E010E0630112C05601F2E0AF0EB11CE4
S1132E30F601C080D18096FE03C0612F70E002C00D
S1132E406FEF7FEFC6010E94141F8C01F92DFF77ED
S1132E5014C0560122E0A20EB11CF601C080D1803C
S1132E6096FE03C0612F70E002C06FEF7FEFC601D2
S1132E700E94091F8C01F92DF0689F2EF3FD1AC0E2
S1132E80852D90E008171907A8F4B70180E290E0B7
S1132E900E941F1F5A94F4CFF60197FC859197FE68
S1132EA081916F01B70190E00E941F1F51105A9445
S1132EB0015011090115110579F7F7C0843611F095
S1132EC0893661F5560197FE09C024E0A20EB11CB3
S1132ED0F60160817181828193810AC0F2E0AF0EB4
S1132EE0B11CF60160817181072E000C880B990BCF
S1132EF0F92DFF769F2E97FF09C0909580957095C8
S1132F0061957F4F8F4F9F4FF0689F2E2AE030E0EE
S1132F10A3010E948B1FC82EC6183FC0092D8537F8
S1132F2021F40F7E2AE030E01DC0097F8F3691F036
S1132F3018F4883559F0C3C0803719F0883711F078
S1132F40BEC0006104FF09C0046007C094FE08C04D
S1132F50066006C028E030E005C020E130E002C091
S1132F6020E132E0560107FF09C084E0A80EB11C3D
S1132F70F601608171818281938108C0F2E0AF0E15
S1132F80B11CF6016081718180E090E0A3010E9490
S1132F908B1FC82EC6180F77902E96FE0BC0092DD6
S1132FA00E7FC11650F494FE0AC092FC08C0092D8D
S1132FB00E7E05C0DC2C092D03C0DC2C01C0D12EF3
S1132FC004FF0DC0FE01EC0DF11D8081803311F46E
S1132FD0097E09C002FF06C0D394D39404C0802F95
S1132FE0867809F0D39403FD11C000FF06C01C2DA0
S1132FF0D51480F4150D1D190DC0D51458F4B7015E
S113300080E290E00E941F1FD394F7CFD51410F4F0
S11330105D1801C0512C04FF10C0B70180E390E09B
S11330200E941F1F02FF17C001FD03C088E790E044
S113303002C088E590E0B7010CC0802F867859F073
S113304001FF02C08BE201C080E207FD8DE2B701FF
S113305090E00E941F1FC11638F4B70180E390E08E
S11330600E941F1F1150F7CFCA94F301EC0DF11DFC
S11330708081B70190E00E941F1FC110F5CF15C0D9
S1133080F4E0F51560F584E0581A93FE1FC00111B1
S113309027C02C8523FF2AC00EEF10E0392D307194
S11330A0932EF8018491811124C0552009F4E4CCB5
S11330B0B70180E290E00E941F1F5A94F6CFF701F7
S11330C08681978126C08FEF9FEF23C0B70180E2EE
S11330D090E00E941F1F5A945110F8CFD8CF512C62
S11330E0B701802F90E00E941F1FD3CF02E011E0B0
S11330F0D5CF91108052B70190E00E941F1F0F5F3F
S11331001F4FCFCF23E0251510F483E0BDCF512C02
S1133110C0CF6096E2E10C94E61C5058BB27AA2766
S11331200E94A5180C941F1A0E94111A38F00E94CC
S1133130181A20F039F49F3F19F426F40C940E1A4F
S11331400EF4E095E7FB0C94081AE92F0E94301A5C
S113315058F3BA17620773078407950720F079F4C8
S1133160A6F50C94521A0EF4E0950B2EBA2FA02D4E
S11331700B01B90190010C01CA01A0011124FF2720
S1133180591B99F0593F50F4503E68F11A16F0401B
S1133190A22F232F342F4427585FF3CF469537951A
S11331A02795A795F0405395C9F77EF41F16BA0BDF
S11331B0620B730B840BBAF09150A1F0FF0FBB1F8D
S11331C0661F771F881FC2F70EC0BA0F621F731FD6
S11331D0841F48F4879577956795B795F7959E3F33
S11331E008F0B0CF9395880F08F09927EE0F9795C4
S11331F0879508950E94E41908F481E008950E94D7
S113320013190C941F1A0E94181A58F00E94111ACC
S113321040F029F45F3F29F00C94081A51110C94E2
S1133220531A0C940E1A0E94301A68F39923B1F3BE
S1133230552391F3951B550BBB27AA2762177307D8
S1133240840738F09F5F5F4F220F331F441FAA1F6C
S1133250A9F335D00E2E3AF0E0E832D09150504028
S1133260E695001CCAF72BD0FE2F29D0660F771FD6
S1133270881FBB1F261737074807AB07B0E809F0BC
S1133280BB0B802DBF01FF2793585F4F3AF09E3F41
S1133290510578F00C94081A0C94531A5F3FE4F328
S11332A0983ED4F3869577956795B795F7959F5F84
S11332B0C9F7880F911D9695879597F90895E1E0D0
S11332C0660F771F881FBB1F621773078407BA072F
S11332D020F0621B730B840BBA0BEE1F88F7E0958A
S11332E008950E9478196894B1110C94531A0895A2
S11332F00E94381A88F09F5798F0B92F9927B75130
S1133300B0F0E1F0660F771F881F991F1AF0BA9585
S1133310C9F714C0B13091F00E94521AB1E0089577
S11333200C94521A672F782F8827B85F39F0B93F69
S1133330CCF3869577956795B395D9F73EF4909538
S11333408095709561957F4F8F4F9F4F0895E894B6
S113335009C097FB3EF490958095709561957F4FD9
S11333608F4F9F4F9923A9F0F92F96E9BB27939587
S1133370F695879577956795B795F111F8CFFAF497
S1133380BB0F11F460FF1BC06F5F7F4F8F4F9F4FC8
S113339016C0882311F096E911C0772321F09EE826
S11333A0872F762F05C0662371F096E8862F70E08C
S11333B060E02AF09A95660F771F881FDAF7880F66
S11333C09695879597F90895990F0008550FAA0BBC
S11333D0E0E8FEEF16161706E807F907C0F0121624
S11333E01306E407F50798F0621B730B840B950B27
S11333F039F40A2661F0232B242B252B21F408957C
S11334000A2609F4A140A6958FEF811D811D089518
S113341097F99F6780E870E060E008959FEF80EC83
S1133420089500240A941616170618060906089526
S113343000240A9412161306140605060895092E8C
S11334400394000C11F4882352F0BB0F40F4BF2BFB
S113345011F460FF04C06F5F7F4F8F4F9F4F08953B
S113346057FD9058440F551F59F05F3F71F0479531
S1133470880F97FB991F61F09F3F79F08795089516
S1133480121613061406551FF2CF4695F1DF08C035
S1133490161617061806991FF1CF86957105610552
S11334A008940895E894BB2766277727CB0197F9FA
S11334B008950E94E41908F48FEF08950E94381AC1
S11334C0A8F19E57B0F1985160F039F1983070F539
S11334D0092E9927660F771F881F991F0A94D1F721
S11334E01CC0BB27993F4CF4B111B1E0B62B672F38
S11334F0782F8827985FB1F708C0869577956795E8
S1133500B79508F4B1609395C1F7BB0F30F411F48B
S113351060FF03C06F5F7F4F8F4F3EF4909580959F
S1133520709561957F4F8F4F9F4F089568940C94C9
S1133530531A0C94521A0E94AE1A0C941F1A0E9429
S1133540111A38F00E94181A20F0952311F00C94E7
S1133550081A0C940E1A11240C94531A0E94301A4F
S113356070F3959FC1F3950F50E0551F629FF001D2
S1133570729FBB27F00DB11D639FAA27F00DB11DEB
S1133580AA1F649F6627B00DA11D661F829F222774
S1133590B00DA11D621F739FB00DA11D621F839FFB
S11335A0A00D611D221F749F3327A00D611D231FD1
S11335B0849F600D211D822F762F6A2F11249F571F
S11335C050409AF0F1F088234AF0EE0FFF1FBB1F22
S11335D0661F771F881F91505040A9F79E3F5105E1
S11335E080F00C94081A0C94531A5F3FE4F3983E4D
S11335F0D4F3869577956795B795F795E7959F5F8B
S1133600C1F7FE2B880F911D9695879597F908951C
S1133610FA01EE0FFF1F309621053105A1F1611566
S1133620710561F48038BFE39B0749F168949038D1
S1133630810561F08038BFEF9B0741F099234AF57B
S1133640FF3FE1053105210519F1E8940894E79558
S1133650D901AA2329F4AB2FBE2FF85FD0F310C0F1
S1133660FF5F70F4A695E0F7F73950F019F0FF3AD0
S113367038F49F779F930DD00F9007FC90580895CE
S113368046F00C940E1A60E070E080E89FE3089521
S11336904FE79F775F934F933F932F930E94031CB1
S11336A02F913F914F915F910E949B1A0C94601B44
S11336B029F416F00C94081A0C94521A0C940E1A4D
S11336C00E94381AA8F39638A0F707F80F92E894E6
S11336D02BE33AEA48EB5FE70E94B11A0F920F928C
S11336E00F924DB75EB70F920E944B1CECE7F0E0CF
S11336F00E94921B4F915F91EF91FF91E595EE1F10
S1133700FF1F49F0FE57E0684427EE0F441FFA9567
S1133710E1F74195550B0E94C51B0F9007FE0C94D1
S1133720B91B0895DF93CF931F930F93FF92EF92EA
S1133730DF927B018C01689406C0DA2EEF010E94AF
S1133740AE1AFE01E894A5912591359145915591C4
S1133750A6F3EF010E94A518FE019701A801DA94CF
S113376069F7DF90EF90FF900F911F91CF91DF9158
S113377008959B01AC0160E070E080E89FE30C9445
S1133780FF180C94081A0C947F1C0E94381AD8F362
S11337909923C9F3940F511DA3F39150504094F011
S11337A059F0882332F0660F771F881F91505040DC
S11337B0C1F79E3F51052CF7880F911D969587956B
S11337C097F908955F3FACF0983E9CF0BB2786952F
S11337D077956795B79508F4B1609395C1F7BB0FDA
S11337E058F711F460FFE8CF6F5F7F4F8F4F9F4F03
S11337F0E3CF0C94531A16F00C947F1C0C940E1AFD
S113380068940C94081A0E94381AA8F39923C1F3F7
S1133810AEF3DF93CF931F930F93FF92C92FDD274E
S113382088232AF02197660F771F881FDAF720E094
S113383030E040E85FEB9FE3883920F0803E38F0C9
S113384021968F770E948E18E4EAF0E004C00E946B
S11338508E18E1EDF0E00E94921B8B01BE01EC0199
S1133860FB2E6F5771097595771F880B990B0E9472
S1133870A91928E132E741E35FE30E94AE1AAF2DB4
S11338809801AE01FF900F911F91CF91DF910E949B
S1133890A5180C941F1AFA01DC01AA0FBB1F9B0187
S11338A0AC01BF5728F4222733274427507820C07F
S11338B0B75190F4AB2F0024469537952795011CFA
S11338C0A395D2F3002071F0220F331F441FB39548
S11338D0DAF30ED00C948D1861307105A0E88A07D4
S11338E0B94630F49B01AC01662777278827907886
S11338F0309621F0208331834283538308959F3F80
S113390031F0915020F4879577956795B795880F96
S1133910911D9695879597F90895DB018F939F9351
S11339200E94BF1CBF91AF91A29F800D911DA39FC8
S1133930900DB29F900D11240895A1E21A2EAA1B96
S1133940BB1BFD010DC0AA1FBB1FEE1FFF1FA2174B
S1133950B307E407F50720F0A21BB30BE40BF50B48
S1133960661F771F881F991F1A9469F760957095D1
S1133970809590959B01AC01BD01CF0108950E94F3
S1133980011DA59F900DB49F900DA49F800D911DC6
S1133990112408952F923F924F925F926F927F92DB
S11339A08F929F92AF92BF92CF92DF92EF92FF924B
S11339B00F931F93CF93DF93CDB7DEB7CA1BDB0BF7
S11339C00FB6F894DEBF0FBECDBF09942A8839889C
S11339D048885F846E847D848C849B84AA84B984A3
S11339E0C884DF80EE80FD800C811B81AA81B981AF
S11339F0CE0FD11D0FB6F894DEBF0FBECDBFED01C3
S1133A000895A29FB001B39FC001A39F700D811DB3
S1133A101124911DB29F700D811D1124911D0895D3
S1133A200F931F93CF93DF938230910510F482E0BC
S1133A3090E0E091A102F091A20220E030E0A0E049
S1133A40B0E0309719F14081518102811381481708
S1133A505907C8F08417950769F4109731F0129646
S1133A600C93129713961C9327C00093A1021093F2
S1133A70A20222C02115310519F04217530718F488
S1133A809A01BD01EF01DF01F801DBCF21153105FA
S1133A90F9F0281B390B2430310580F48A819B818D
S1133AA06115710521F0FB019383828304C0909317
S1133AB0A2028093A102FE01329644C0FE01E20FED
S1133AC0F31F8193919322503109398328833AC09B
S1133AD020919F023091A002232B41F420911901DF
S1133AE030911A013093A00220939F022091170174
S1133AF0309118012115310541F42DB73EB740919D
S1133B001B0150911C01241B350BE0919F02F09185
S1133B10A002E217F307A0F42E1B3F0B2817390766
S1133B2078F0AC014E5F5F4F2417350748F04E0F15
S1133B305F1F5093A00240939F028193919302C010
S1133B40E0E0F0E0CF01DF91CF911F910F91089554
S1133B50CF93DF93009709F481C0FC01329713825D
S1133B601282A091A102B091A202109781F4208147
S1133B703181820F931F20919F023091A002281758
S1133B80390751F5F093A002E0939F0267C0ED015D
S1133B9020E030E0CE17DF0740F44A815B819E01CC
S1133BA041155105F1F0EA01F5CFD383C283408179
S1133BB05181840F951FC817D90759F488819981B9
S1133BC0840F951F0296918380838A819B819383BE
S1133BD082832115310529F4F093A202E093A10216
S1133BE03DC0E901FB83EA8349915991C40FD51F74
S1133BF0EC17FD0761F480819181840F951F029673
S1133C00E90199838883828193819B838A83E0E09D
S1133C10F0E012968D919C911397009719F0FD0195
S1133C20DC01F7CF8D919C9111979D012E5F3F4F41
S1133C30820F931F20919F023091A0022817390709
S1133C4069F4309729F41092A2021092A10202C0E2
S1133C5013821282B093A002A0939F02DF91CF91AE
S1133C600895283008F027E03327DA01990F311D31
S1133C7087FD916000966105710539F432602E5F0D
S1133C803D9330E32A95E1F708959F3F30F0803863
S1133C907105610509F03C5F3C5F3D93913008F08C
S1133CA08068911DDF93CF931F930F93FF92EF9240
S1133CB0192F987F9695E92F96959695E90FFF27EA
S1133CC0E05AFE4F99273327EE24FF24A701E7018A
S1133CD005900894079428F4360FE71EF81E491F30
S1133CE0511D660F771F881F991F0694A1F7059031
S1133CF0079428F4E70EF81E491F561FC11D770FBD
S1133D00881F991F661F0694A1F70590079428F44D
S1133D10F80E491F561FC71FD11D880F991F661F14
S1133D20771F0694A1F70590079420F4490F561FB6
S1133D30C71FD81F990F661F771F881F0694A9F7FE
S1133D4084911095177041F0D695C795579547956E
S1133D50F794E7941A95C1F7E6E0F1E068941590BA
S1133D60159135916591959105907FE27395E118D0
S1133D70F10A430B560BC90BD009C0F7E10CF11E35
S1133D80431F561FC91FD01D7EF4703311F48A954A
S1133D90E6CFE894015030F0080F0AF40027021728
S1133DA008F4202F2395022F7A3328F079E37D93AA
S1133DB02A95E9F710C07D932A9589F6069497957C
S1133DC06795379517951794E118F10A430B560B2D
S1133DD0C90BD00998F023957E9173957A3308F036
S1133DE070E37C932013B8F77E9170617D9330F07B
S1133DF0839571E37D9370E32A95E1F71124EF90A5
S1133E00FF900F911F91CF91DF91992787FD909596
S1133E100895FC010590615070400110D8F7809519
S1133E2090958E0F9F1F0895FC0161507040019082
S1133E300110D8F7809590958E0F9F1F08950F93CA
S1133E401F93CF93DF93FB01238121FD03C08FEFE9
S1133E509FEF2CC022FF16C04681578124813581F3
S1133E604217530744F4A081B1819D012F5F3F4F56
S1133E70318320838C93268137812F5F3F4F378393
S1133E80268314C08B01EC01FB010084F185E02D35
S1133E900995892BE1F6D80116968D919C91179777
S1133EA0019617969C938E931697CE01DF91CF912E
S1133EB01F910F9108950F931F93CF93DF93E09178
S1133EC0A502F091A602238121FF1BC08C01D0E042
S1133ED0C0E0F80181918F016091A5027091A60262
S1133EE0DB011896ED91FC911997882331F009951F
S1133EF0892B79F3DFEFCFEFECCF8AE00995892B9B
S1133F0019F08FEF9FEF02C08D2F9C2FDF91CF917F
S1133F101F910F910895FA01AA27283051F12031F9
S1133F2081F1E8946F936E7F6E5F7F4F8F4F9F4F49
S1133F30AF4FB1E03ED0B4E03CD0670F781F891F8B
S1133F409A1FA11D680F791F8A1F911DA11D6A0F59
S1133F50711D811D911DA11D20D009F468943F910C
S1133F602AE0269F11243019305D3193DEF6CF010B
S1133F700895462F4770405D4193B3E00FD0C9F7D1
S1133F80F6CF462F4F70405D4A3318F0495D31FD3E
S1133F904052419302D0A9F7EACFB4E0A695979591
S1133FA0879577956795BA95C9F700976105710567
S1133FB008959B01AC010A2E0694579547953795B1
S1133FC02795BA95C9F7620F731F841F951FA01D0B
S1093FD00895F894FFCFF0
S1133FD61F0000000200000000350D00000000185C
S1133FE60C041060C080200000A9022000537461F4
S1133FF67274696E672E2E2E00466F6C6C6F77692D
S11340066E67206C696E652E2E2E00556E6B6E6F74
S1134016776E207374617465210072656164206C27
S1134026696E652073656E736F722E2E2E0073682B
S1134036696674206C6566742052007368696674D8
S113404620726967687400736869667420726967A8
S1134056687420414C007368696674206C656674E4
S111406620414C007374726169676874000035
S9030000FC
